:100000000C9463000C948B000C948B000C948B006C
:100010000C948B000C948B000C948B000C948B0034
:100020000C948B000C948B000C948B000C941B0292
:100030000C948B000C948B000C948B000C948B0014
:100040000C94D9020C948B000C9449040C949B04DE
:100050000C948B000C948B000C948B000C948B00F4
:100060000C948B000C948B000000000024002700EF
:100070002A0000000000250028002B0000000000DE
:1000800023002600290004040404040404040202DA
:100090000202020203030303030301020408102007
:1000A0004080010204081020010204081020000012
:1000B0000007000201000003040600000000000029
:1000C00000008D000A0611241FBECFEFD8E0DEBF6E
:1000D000CDBF11E0A0E0B1E0E8EFFEE002C0059086
:1000E0000D92A031B107D9F711E0A0E1B1E001C054
:1000F0001D92AC3EB107E1F710E0C6ECD0E004C0C1
:100100002297FE010E947607C23CD107C9F70E94E0
:1001100061060C947A070C94000080E191E00E9443
:10012000D70008958436B1F0833739F08136F1F481
:1001300080E191E064E170E004C080E191E06AE573
:1001400070E00E942D0162E370E080E090E00E9488
:100150002103089580E191E060EA70E00E942D01A2
:1001600062E370E080E090E00E94210308958AEC51
:1001700091E00E9491050E94920008950F931F93B1
:100180008AEC91E040E855E260E070E00E94D6041D
:1001900000E111E0C80169E070E00E941402C801AA
:1001A00064E170E00E942D011F910F910895FC0100
:1001B000809113018C3090F480838F5F80931301C2
:1001C000815090E0FC01EE0FFF1FE80FF91FEC5E7D
:1001D000FE4F88EB9BE09283818308958FEF8083AD
:1001E0000895FC0120812C30B8F58181992787FD85
:1001F000909548E850E0481B590B440F551F440F99
:10020000551F6417750784F08281992787FD9095A3
:1002100048E552E0481B590B440F551F440F551F2A
:10022000641775070CF4AB0142505040CA01AA276D
:1002300097FDA095BA2F880F991FAA1FBB1F4FB714
:10024000F89430E0F901EE0FFF1FE20FF31FEC5EB0
:10025000FE4F928381834FBF0895AF92BF92CF929A
:10026000DF92EF92FF920F931F93CF93DF93EC01F6
:100270009B0182E0603278070CF048C077FF03C032
:1002800020E030E005C0653B710514F024EB30E060
:1002900000D000D0B901882777FD8095982F29815B
:1002A000332727FD3095E8E8AE2EB12CA21AB30A09
:1002B000AA0CBB1CAA0CBB1CCC24B7FCC094DC2C25
:1002C000EA81FF27E7FDF09528E532E02E1B3F0B82
:1002D000220F331F220F331F442737FD4095542F21
:1002E000EDB7FEB7218332834383548320E030E0AF
:1002F00040E050E004EBE02EF12C012D112D0E9486
:100300009C069B010F900F900F900F90CE01B901AA
:100310000E94F100DF91CF911F910F91FF90EF901C
:10032000DF90CF90BF90AF900895CF92DF92EF9281
:10033000FF921F93CF93DF93EC01162F7A0169018F
:1003400088818C3008F064C0862F61E00E94B5037C
:10035000888190E0FC01EE0FFF1FE80FF91FEC5EB3
:10036000FE4F1F738081807C812B808380E292E02E
:100370008E199F0964E070E00E941007698380E68F
:1003800099E08C199D0964E070E00E9410076A836F
:10039000A8818A2F6CE00E940407682F70E0AB01EF
:1003A000440F551F460F571F440F551F440F551F2D
:1003B00020E030E0C901840F951FFC01EE0FFF1F04
:1003C000E80FF91FEC5EFE4F808186FD15C02F5FA0
:1003D0003F4F2C30310571F724C01092800082E02D
:1003E000809381001092850010928400B19A8091D0
:1003F0006F00826080936F008A2F90E0FC01EE0F07
:10040000FF1FE80FF91FEC5EFE4F80818064808340
:100410008881DF91CF911F91FF90EF90DF90CF9077
:100420000895672BD1F2E8CF40E252E020E639E0B0
:100430000E94950108951F920F920FB60F921124FA
:100440002F933F934F935F936F937F938F939F93DC
:10045000AF93BF93EF93FF938091380187FF05C05F
:1004600010928500109284002BC020913801332710
:1004700027FD30958091130190E02817390704F586
:1004800080913801992787FD9095FC01EE0FFF1FA1
:10049000E80FF91FEC5EFE4F808186FF11C080914E
:1004A0003801992787FD9095FC01EE0FFF1FE80F9B
:1004B000F91FEC5EFE4F80818F7360E00E94F403B1
:1004C000809138018F5F8093380120913801332764
:1004D00027FD30958091130190E0281739070CF023
:1004E0004EC0809138018C300CF049C020918400BE
:1004F0003091850080913801992787FD9095FC0106
:10050000EE0FFF1FE80FF91FEC5EFE4F8181928115
:10051000280F391F3093890020938800809138017B
:10052000992787FD9095FC01EE0FFF1FE80FF91F3B
:10053000EC5EFE4F808186FF2BC0809138019927A9
:1005400087FD9095FC01EE0FFF1FE80FF91FEC5E91
:10055000FE4F80818F7361E00E94F40319C080E434
:100560009CE905C080918400909185000496909349
:100570008900809388008FEF8093380109C08091B3
:10058000840090918500049680549C4940F3EACF02
:10059000FF91EF91BF91AF919F918F917F916F915B
:1005A0005F914F913F912F910F900FBE0F901F9031
:1005B00018951F920F920FB60F9211242F933F930D
:1005C0008F939F93AF93BF9380913D0190913E0194
:1005D000A0913F01B0914001309141010196A11DD0
:1005E000B11D232F2D5F2D3720F02D570196A11D12
:1005F000B11D2093410180933D0190933E01A09352
:100600003F01B09340018091390190913A01A0914E
:100610003B01B0913C010196A11DB11D80933901B0
:1006200090933A01A0933B01B0933C01BF91AF91ED
:100630009F918F913F912F910F900FBE0F901F9020
:1006400018959B01AC017FB7F89480913901909186
:100650003A01A0913B01B0913C0166B5A89B05C051
:100660006F3F19F00196A11DB11D7FBFBA2FA92FB1
:10067000982F8827860F911DA11DB11D62E0880F5C
:10068000991FAA1FBB1F6A95D1F7BC012DC0FFB7E8
:10069000F8948091390190913A01A0913B01B09179
:1006A0003C01E6B5A89B05C0EF3F19F00196A11DDE
:1006B000B11DFFBFBA2FA92F982F88278E0F911D2C
:1006C000A11DB11DE2E0880F991FAA1FBB1FEA956B
:1006D000D1F7861B970B885E9340C8F221503040BB
:1006E0004040504068517C4F21153105410551056E
:1006F00071F60895789484B5826084BD84B5816074
:1007000084BD85B5826085BD85B5816085BDEEE619
:10071000F0E0808181608083E1E8F0E010828081F8
:1007200082608083808181608083E0E8F0E0808166
:1007300081608083E1EBF0E0808184608083E0EB86
:10074000F0E0808181608083EAE7F0E0808184606E
:1007500080838081826080838081816080838081CA
:10076000806880831092C1000895CF93DF93482F53
:1007700050E0CA0186569F4FFC0134914A575F4FA3
:10078000FA018491882369F190E0880F991FFC0198
:10079000E859FF4FA591B491FC01EE58FF4FC59168
:1007A000D491662351F42FB7F8948C91932F9095A0
:1007B00089238C93888189230BC0623061F42FB721
:1007C000F8948C91932F909589238C938881832B17
:1007D00088832FBF06C09FB7F8948C91832B8C938E
:1007E0009FBFDF91CF910895482F50E0CA018255F5
:1007F0009F4FFC012491CA0186569F4FFC019491A2
:100800004A575F4FFA013491332309F440C0222341
:1008100051F1233071F0243028F42130A1F022303E
:1008200011F514C02630B1F02730C1F02430D9F4CE
:1008300004C0809180008F7703C0809180008F7DFD
:100840008093800010C084B58F7702C084B58F7DFF
:1008500084BD09C08091B0008F7703C08091B00043
:100860008F7D8093B000E32FF0E0EE0FFF1FEE5876
:10087000FF4FA591B4912FB7F894662321F48C9182
:100880009095892302C08C91892B8C932FBF08955A
:1008900008951F920F920FB60F9211242F933F933A
:1008A0004F938F939F93EF93FF938091C00082FDAE
:1008B0001DC04091C60020918201309183012F5FBD
:1008C0003F4F2F73307080918401909185012817DC
:1008D000390771F0E0918201F0918301EE5BFE4FE8
:1008E0004083309383012093820102C08091C6002F
:1008F000FF91EF919F918F914F913F912F910F9089
:100900000FBE0F901F901895E091D601F091D7017E
:10091000E05CFF4F8191919120813181805C9F4FFC
:10092000821B930B60E470E00E941007892B11F08A
:100930000E94480408951F920F920FB60F9211243F
:100940002F933F938F939F93EF93FF932091C60133
:100950003091C7018091C8019091C90128173907CA
:1009600031F48091C1008F7D8093C10014C0E0916B
:10097000C801F091C901EA57FE4F20818091C8015A
:100980009091C90101968F7390709093C9018093E3
:10099000C8012093C600FF91EF919F918F913F91E5
:1009A0002F910F900FBE0F901F901895AF92BF928E
:1009B000DF92EF92FF920F931F93CF93DF93EC019F
:1009C0007A018B01DD24403081EE580780E0680712
:1009D00080E0780711F0DD24D39491E0A92EB12CAA
:1009E000EC89FD89DD2069F0C50108A002C0880FEF
:1009F000991F0A94E2F7808360E079E08DE390E04C
:100A000005C0108260E874E88EE190E0A8019701CB
:100A10000E94230721503040404050405695479552
:100A20003795279580E12030380720F0DD2011F040
:100A3000DD24D6CFE889F9893083EA89FB892083D0
:100A400019A2EE89FF89408121E030E0C9010C8CB8
:100A500002C0880F991F0A94E2F7482B4083EE8961
:100A6000FF894081C9010D8C02C0880F991F0A942B
:100A7000E2F7482B4083EE89FF894081C9010E8C43
:100A800002C0880F991F0A94E2F7482B4083EE8931
:100A9000FF8980810F8C02C0220F331F0A94E2F776
:100AA000209528232083DF91CF911F910F91FF90F4
:100AB000EF90DF90BF90AF900895DC011C96ED9110
:100AC000FC911D97E05CFF4F8191919120813181D4
:100AD000805C9F4F821B930B60E470E00E941007C4
:100AE0000895DC011C96ED91FC911D97E05CFF4F91
:100AF00020813181E054F040DF01AE5BBF4F8D912A
:100B00009C9111972817390719F42FEF3FEF07C071
:100B10008D919C91E80FF91F8081282F30E0C90149
:100B20000895DC011C96ED91FC911D97E05CFF4F50
:100B300020813181E054F040DF01AE5BBF4F8D91E9
:100B40009C9111972817390719F42FEF3FEF10C028
:100B50008D919C911197E80FF91F20818D919C91A7
:100B6000119701968F73907011969C938E9330E03D
:100B7000C9010895DC0191968C919197882339F0F1
:100B80005496ED91FC915597808186FFF9CF91960F
:100B90001C920895CF93DF93EC01EE85FF85E05C16
:100BA000FF4F20813181E054F0402F5F3F4F2F7382
:100BB0003070DF01AE5BBF4F8D919C91119728176C
:100BC0003907D1F3E05CFF4F80819181E054F04020
:100BD000E80FF91F6083EE85FF85E05CFF4F3183EE
:100BE0002083EE89FF89208181E090E00F8C02C094
:100BF000880F991F0A94E2F7282B208381E089A3AC
:100C0000EC89FD8980818064808381E090E0DF91C0
:100C1000CF9108951092CD011092CC0188EE93E00F
:100C2000A0E0B0E08093CE019093CF01A093D001DB
:100C3000B093D10184E091E09093CB018093CA01FD
:100C400082E491E09093D7018093D60186E891E009
:100C50009093D9018093D80185EC90E09093DB01CB
:100C60008093DA0184EC90E09093DD018093DC01C5
:100C700080EC90E09093DF018093DE0181EC90E0C6
:100C80009093E1018093E00182EC90E09093E30186
:100C90008093E20186EC90E09093E5018093E4017B
:100CA00084E08093E60183E08093E70187E080930E
:100CB000E80185E08093E90181E08093EA010895ED
:100CC0000895CF93DF930E947A030E9460060E94EA
:100CD000BE00C4E8D4E00E94B7002097E1F30E9470
:100CE0008404F9CFCF92DF92EF92FF920F931F937C
:100CF000CF93DF937C016B018A01C0E0D0E00FC08D
:100D0000D6016D916D01D701ED91FC910190F081BB
:100D1000E02DC7010995C80FD91F015010400115DA
:100D2000110571F7CE01DF91CF911F910F91FF90C7
:100D3000EF90DF90CF9008952F923F924F925F9265
:100D40006F927F928F929F92AF92BF92CF92DF92DB
:100D5000EF92FF920F931F93DF93CF93CDB7DEB740
:100D60003B014C0119012A016D897E898F89988D7B
:100D70006A197B098C099D09621A730A840A950A0B
:100D8000A40193010E94E506E218F308040915097D
:100D9000A80197010E9445072A0D3B1D4C1D5D1DB2
:100DA000B901CA01CF91DF911F910F91FF90EF9090
:100DB000DF90CF90BF90AF909F908F907F906F907B
:100DC0005F904F903F902F900895629FD001739F46
:100DD000F001829FE00DF11D649FE00DF11D929FD7
:100DE000F00D839FF00D749FF00D659FF00D992716
:100DF000729FB00DE11DF91F639FB00DE11DF91F3A
:100E0000BD01CF0111240895991B79E004C0991FF9
:100E1000961708F0961B881F7A95C9F78095089554
:100E200097FB092E07260AD077FD04D049D006D0BB
:100E300000201AF4709561957F4F0895F6F790950C
:100E400081959F4F0895A1E21A2EAA1BBB1BFD019D
:100E50000DC0AA1FBB1FEE1FFF1FA217B307E40799
:100E6000F50720F0A21BB30BE40BF50B661F771FF1
:100E7000881F991F1A9469F76095709580959095D1
:100E80009B01AC01BD01CF01089597FB092E0526FA
:100E90000ED057FD04D0D7DF0AD0001C38F450958F
:100EA0004095309521953F4F4F4F5F4F0895F6F78E
:100EB00090958095709561957F4F8F4F9F4F0895C6
:100EC000AA1BBB1B51E107C0AA1FBB1FA617B70770
:100ED00010F0A61BB70B881F991F5A95A9F780958C
:100EE0009095BC01CD010895EE0FFF1F0590F49180
:080EF000E02D0994F894FFCFF6
:100EF80000000000CA0572065D0591057105BA0576
:00000001FF
