:100000000C9463000C948B000C948B000C948B006C
:100010000C948B000C948B000C948B000C948B0034
:100020000C948B000C948B000C948B000C94840229
:100030000C948B000C948B000C948B000C948B0014
:100040000C9442030C948B000C94D4040C9426055D
:100050000C948B000C948B000C948B000C948B00F4
:100060000C948B000C948B000000000024002700EF
:100070002A0000000000250028002B0000000000DE
:1000800023002600290004040404040404040202DA
:100090000202020203030303030301020408102007
:1000A0004080010204081020010204081020000012
:1000B0000007000201000003040600000000000029
:1000C00000008D00950611241FBECFEFD8E0DEBFE3
:1000D000CDBF11E0A0E0B1E0E8ECF0E102C0059096
:1000E0000D92AA32B107D9F712E0AAE2B1E001C03D
:1000F0001D92A532B107E1F710E0C6ECD0E004C0D4
:100100002297FE010E945E08C23CD107C9F70E94F7
:10011000EC060C9462080C9400008AE291E00E94C4
:1001200040010895EF92FF920F931F93CF93DF93B7
:100130007C018B01EA0180912D01882371F48DE20D
:1001400091E00E94FD06892B41F0D0933601C093C7
:1001500035018DE291E00E94070780913501909171
:100160003601FC01EE0FFF1FEE0DFF1D1183008312
:1001700001966AE070E00E94F80790933601809340
:10018000350120E030E040E050E060E070E0F70151
:10019000E60FF71F80819181AA2797FDA095BA2FBE
:1001A000280F391F4A1F5B1F6E5F7F4F6431710537
:1001B00071F7CA01B9012AE030E040E050E00E9446
:1001C0002D08C901DF91CF911F910F91FF90EF9002
:1001D00008951F931091370180E00E941E04BC0116
:1001E00088E391E040E050E00E949200873491055E
:1001F00014F011E003C04E970CF410E08091370129
:10020000882369F41123C9F08AE291E06AE570E07D
:100210000E94960183E092E060E071E00CC011233F
:1002200061F48AE291E06EE170E00E94960183E061
:1002300092E06DE071E00E9471071093370166E073
:1002400070E080E090E00E948A031F9108950F9370
:100250001F930AE211E0C80169E070E00E947D028C
:10026000C8016EE170E00E94960183E092E040E8F0
:1002700055E260E070E00E9461051F910F910895C2
:10028000FC0180914C018C3090F480838F5F8093CF
:100290004C01815090E0FC01EE0FFF1FE80FF91FA9
:1002A000E35BFE4F88EB9BE09283818308958FEFA1
:1002B00080830895FC0120812C30B8F58181992735
:1002C00087FD909548E850E0481B590B440F551F97
:1002D000440F551F6417750784F08281992787FDA5
:1002E000909548E552E0481B590B440F551F440FA9
:1002F000551F641775070CF4AB0142505040CA01FA
:10030000AA2797FDA095BA2F880F991FAA1FBB1F78
:100310004FB7F89430E0F901EE0FFF1FE20FF31F23
:10032000E35BFE4F928381834FBF0895AF92BF92EC
:10033000CF92DF92EF92FF920F931F93CF93DF93B1
:10034000EC019B0182E0603278070CF048C077FF37
:1003500003C020E030E005C0653B710514F024EBDC
:1003600030E000D000D0B901882777FD8095982F24
:100370002981332727FD3095E8E8AE2EB12CA21A4B
:10038000B30AAA0CBB1CAA0CBB1CCC24B7FCC0949F
:10039000DC2CEA81FF27E7FDF09528E532E02E1BF3
:1003A0003F0B220F331F220F331F442737FD409589
:1003B000542FEDB7FEB7218332834383548320E06B
:1003C00030E040E050E004EBE02EF12C012D112D47
:1003D0000E9484079B010F900F900F900F90CE0109
:1003E000B9010E945A01DF91CF911F910F91FF90A7
:1003F000EF90DF90CF90BF90AF900895CF92DF92B3
:10040000EF92FF921F93CF93DF93EC01162F7A01A7
:10041000690188818C3008F064C0862F61E00E94F9
:100420004004888190E0FC01EE0FFF1FE80FF91FE8
:10043000E35BFE4F1F738081807C812B808380E291
:1004400092E08E199F0964E070E00E94F8076983CA
:1004500080E699E08C199D0964E070E00E94F8073D
:100460006A83A8818A2F6CE00E94EC07682F70E0F5
:10047000AB01440F551F460F571F440F551F440F24
:10048000551F20E030E0C901840F951FFC01EE0FDD
:10049000FF1FE80FF91FE35BFE4F808186FD15C04B
:1004A0002F5F3F4F2C30310571F724C01092800030
:1004B00082E0809381001092850010928400B19AAE
:1004C00080916F00826080936F008A2F90E0FC0122
:1004D000EE0FFF1FE80FF91FE35BFE4F8081806482
:1004E00080838881DF91CF911F91FF90EF90DF9003
:1004F000CF900895672BD1F2E8CF40E252E020E69A
:1005000039E00E94FE0108951F920F920FB60F92DC
:1005100011242F933F934F935F936F937F938F9308
:100520009F93AF93BF93EF93FF938091710187FFE8
:1005300005C010928500109284002BC0209171019B
:10054000332727FD309580914C0190E0281739071B
:1005500004F580917101992787FD9095FC01EE0FBC
:10056000FF1FE80FF91FE35BFE4F808186FF11C07C
:1005700080917101992787FD9095FC01EE0FFF1F77
:10058000E80FF91FE35BFE4F80818F7360E00E94EC
:100590007F04809171018F5F8093710120917101BF
:1005A000332727FD309580914C0190E028173907BB
:1005B0000CF04EC0809171018C300CF049C020913C
:1005C00084003091850080917101992787FD909575
:1005D000FC01EE0FFF1FE80FF91FE35BFE4F818167
:1005E0009281280F391F30938900209388008091D1
:1005F0007101992787FD9095FC01EE0FFF1FE80F11
:10060000F91FE35BFE4F808186FF2BC08091710153
:10061000992787FD9095FC01EE0FFF1FE80FF91F4A
:10062000E35BFE4F80818F7361E00E947F0419C0FD
:1006300080E49CE905C08091840090918500049637
:1006400090938900809388008FEF8093710109C097
:100650008091840090918500049680549C4940F3D9
:10066000EACFFF91EF91BF91AF919F918F917F91D1
:100670006F915F914F913F912F910F900FBE0F900F
:100680001F9018951F920F920FB60F9211242F935F
:100690003F938F939F93AF93BF93809176019091F7
:1006A0007701A0917801B091790130917A0101969A
:1006B000A11DB11D232F2D5F2D3720F02D57019641
:1006C000A11DB11D20937A0180937601909377014B
:1006D000A0937801B0937901809172019091730198
:1006E000A0917401B09175010196A11DB11D809377
:1006F000720190937301A0937401B0937501BF913F
:10070000AF919F918F913F912F910F900FBE0F90BE
:100710001F9018959B01AC017FB7F89480917201EE
:1007200090917301A0917401B091750166B5A89B79
:1007300005C06F3F19F00196A11DB11D7FBFBA2FF3
:10074000A92F982F8827860F911DA11DB11D62E04A
:10075000880F991FAA1FBB1F6A95D1F7BC012DC036
:10076000FFB7F8948091720190917301A091740188
:10077000B0917501E6B5A89B05C0EF3F19F0019651
:10078000A11DB11DFFBFBA2FA92F982F88278E0F4B
:10079000911DA11DB11DE2E0880F991FAA1FBB1F6B
:1007A000EA95D1F7861B970B885E9340C8F22150DB
:1007B00030404040504068517C4F21153105410583
:1007C000510571F60895789484B5826084BD84B52E
:1007D000816084BD85B5826085BD85B5816085BD3C
:1007E000EEE6F0E0808181608083E1E8F0E0108255
:1007F000808182608083808181608083E0E8F0E096
:10080000808181608083E1EBF0E08081846080837F
:10081000E0EBF0E0808181608083EAE7F0E08081B6
:100820008460808380818260808380818160808316
:100830008081806880831092C1000895982F8E3047
:1008400008F09E509770809119018295880F880F4B
:10085000807C892B80937C0080917A0080648093D7
:100860007A0080917A0086FDFCCF2091780040913B
:100870007900942F80E030E0282B392BC9010895AE
:10088000CF93DF93482F50E0CA0186569F4FFC015B
:1008900034914A575F4FFA018491882369F190E0BF
:1008A000880F991FFC01E859FF4FA591B491FC01F5
:1008B000EE58FF4FC591D491662351F42FB7F894A9
:1008C0008C91932F909589238C93888189230BC0D9
:1008D000623061F42FB7F8948C91932F909589230F
:1008E0008C938881832B88832FBF06C09FB7F89491
:1008F0008C91832B8C939FBFDF91CF910895482FCC
:1009000050E0CA0182559F4FFC012491CA018656CE
:100910009F4FFC0194914A575F4FFA013491332362
:1009200009F440C0222351F1233071F0243028F41F
:100930002130A1F0223011F514C02630B1F027305B
:10094000C1F02430D9F404C0809180008F7703C0B7
:10095000809180008F7D8093800010C084B58F7758
:1009600002C084B58F7D84BD09C08091B0008F77AF
:1009700003C08091B0008F7D8093B000E32FF0E042
:10098000EE0FFF1FEE58FF4FA591B4912FB7F894CB
:10099000662321F48C919095892302C08C91892B38
:1009A0008C932FBF089508951F920F920FB60F9248
:1009B00011242F933F934F938F939F93EF93FF9324
:1009C0008091C00082FD1DC04091C6002091BB01F6
:1009D0003091BC012F5F3F4F2F7330708091BD016C
:1009E0009091BE012817390771F0E091BB01F09199
:1009F000BC01E558FE4F40833093BC012093BB01FE
:100A000002C08091C600FF91EF919F918F914F910D
:100A10003F912F910F900FBE0F901F901895E0916E
:100A20000F02F0911002E05CFF4F819191912081C3
:100A30003181805C9F4F821B930B60E470E00E94C9
:100A4000F807892B11F00E94D30408951F920F928A
:100A50000FB60F9211242F933F938F939F93EF9391
:100A6000FF932091FF01309100028091010290914B
:100A700002022817390731F48091C1008F7D8093DD
:100A8000C10014C0E0910102F0910202E154FE4F56
:100A90002081809101029091020201968F739070E3
:100AA00090930202809301022093C600FF91EF9180
:100AB0009F918F913F912F910F900FBE0F901F909C
:100AC0001895AF92BF92DF92EF92FF920F931F9310
:100AD000CF93DF93EC017A018B01DD24403081EE6E
:100AE000580780E0680780E0780711F0DD24D39490
:100AF00091E0A92EB12CEC89FD89DD2069F0C501BA
:100B000008A002C0880F991F0A94E2F7808360E072
:100B100079E08DE390E005C0108260E874E88EE132
:100B200090E0A80197010E940B08215030404040FE
:100B30005040569547953795279580E120303807E6
:100B400020F0DD2011F0DD24D6CFE889F98930834B
:100B5000EA89FB89208319A2EE89FF89408121E07F
:100B600030E0C9010C8C02C0880F991F0A94E2F78B
:100B7000482B4083EE89FF894081C9010D8C02C05A
:100B8000880F991F0A94E2F7482B4083EE89FF896A
:100B90004081C9010E8C02C0880F991F0A94E2F7A8
:100BA000482B4083EE89FF8980810F8C02C0220F81
:100BB000331F0A94E2F7209528232083DF91CF91F9
:100BC0001F910F91FF90EF90DF90BF90AF9008952D
:100BD000DC011C96ED91FC911D97E05CFF4F81912B
:100BE000919120813181805C9F4F821B930B60E447
:100BF00070E00E94F8070895DC011C96ED91FC91CD
:100C00001D97E05CFF4F20813181E054F040DF010F
:100C1000AE5BBF4F8D919C9111972817390719F43E
:100C20002FEF3FEF07C08D919C91E80FF91F808156
:100C3000282F30E0C9010895DC011C96ED91FC914C
:100C40001D97E05CFF4F20813181E054F040DF01CF
:100C5000AE5BBF4F8D919C9111972817390719F4FE
:100C60002FEF3FEF10C08D919C911197E80FF91F66
:100C700020818D919C91119701968F7390701196A0
:100C80009C938E9330E0C9010895DC0191968C917C
:100C90009197882339F05496ED91FC915597808176
:100CA00086FFF9CF91961C920895CF93DF93EC01C4
:100CB000EE85FF85E05CFF4F20813181E054F040FC
:100CC0002F5F3F4F2F733070DF01AE5BBF4F8D91B1
:100CD0009C91119728173907D1F3E05CFF4F808171
:100CE0009181E054F040E80FF91F6083EE85FF85A5
:100CF000E05CFF4F31832083EE89FF89208181E012
:100D000090E00F8C02C0880F991F0A94E2F7282BFD
:100D1000208381E089A3EC89FD89808180648083C0
:100D200081E090E0DF91CF91089510920602109239
:100D3000050288EE93E0A0E0B0E080930702909374
:100D40000802A0930902B0930A028EE191E0909309
:100D50000402809303028BE791E09093100280934A
:100D60000F028FEB91E0909312028093110285ECB9
:100D700090E0909314028093130284EC90E090939F
:100D800016028093150280EC90E0909318028093F5
:100D9000170281EC90E090931A028093190282EC82
:100DA00090E090931C0280931B0286EC90E090935D
:100DB0001E0280931D0284E080931F0283E08093D3
:100DC000200287E08093210285E08093220281E067
:100DD0008093230208950895CF93DF930E94E30345
:100DE0000E94EB060E942701CFE0D5E00E94E900B7
:100DF0002097E1F30E940F05F9CFFC0120E030E0DD
:100E00008081882311F421E030E0C9010895FC01BC
:100E100081E080830895CF92DF92EF92FF920F934B
:100E20001F93CF93DF937C016B018A01C0E0D0E078
:100E30000FC0D6016D916D01D701ED91FC9101902C
:100E4000F081E02DC7010995C80FD91F015010404E
:100E50000115110571F7CE01DF91CF911F910F910F
:100E6000FF90EF90DF90CF900895EF92FF920F9355
:100E70001F938C01DC01ED91FC910190F081E02D3C
:100E80006DE009957C01D801ED91FC910190F08114
:100E9000E02DC8016AE009959C012E0D3F1DC90196
:100EA0001F910F91FF90EF900895CF93DF93EC0186
:100EB0006115710519F420E030E00FC0DB010D90E1
:100EC0000020E9F71197A61BB70BE881F981028092
:100ED000F381E02DAD0109959C01C901DF91CF910E
:100EE0000895EF92FF920F931F937C010E94550784
:100EF0008C01C7010E943507080F191FC8011F91F7
:100F00000F91FF90EF9008952F923F924F925F9232
:100F10006F927F928F929F92AF92BF92CF92DF9209
:100F2000EF92FF920F931F93DF93CF93CDB7DEB76E
:100F30003B014C0119012A016D897E898F89988DA9
:100F40006A197B098C099D09621A730A840A950A39
:100F5000A40193010E94CD07E218F30804091509C2
:100F6000A80197010E942D082A0D3B1D4C1D5D1DF7
:100F7000B901CA01CF91DF911F910F91FF90EF90BE
:100F8000DF90CF90BF90AF909F908F907F906F90A9
:100F90005F904F903F902F900895629FD001739F74
:100FA000F001829FE00DF11D649FE00DF11D929F05
:100FB000F00D839FF00D749FF00D659FF00D992744
:100FC000729FB00DE11DF91F639FB00DE11DF91F68
:100FD000BD01CF0111240895991B79E004C0991F28
:100FE000961708F0961B881F7A95C9F78095089583
:100FF00097FB092E07260AD077FD04D049D006D0EA
:1010000000201AF4709561957F4F0895F6F790953A
:1010100081959F4F0895A1E21A2EAA1BBB1BFD01CB
:101020000DC0AA1FBB1FEE1FFF1FA217B307E407C7
:10103000F50720F0A21BB30BE40BF50B661F771F1F
:10104000881F991F1A9469F76095709580959095FF
:101050009B01AC01BD01CF01089597FB092E052628
:101060000ED057FD04D0D7DF0AD0001C38F45095BD
:101070004095309521953F4F4F4F5F4F0895F6F7BC
:1010800090958095709561957F4F8F4F9F4F0895F4
:10109000AA1BBB1B51E107C0AA1FBB1FA617B7079E
:1010A00010F0A61BB70B881F991F5A95A9F78095BA
:1010B0009095BC01CD010895EE0FFF1F0590F491AE
:0810C000E02D0994F894FFCF24
:1010C8007374617465203D206E656172007374618C
:1010D8007465203D2066617200010000000055061D
:0A10E8000B07E8051C06FC05450691
:00000001FF
